:10000300BBB6D3ADCAB9D3C300CFC3C3C5D6C7BF6D
:10001300D8BFAAB7A2B0E50054454C3135393830C2
:1000230038343536303100B2E2CAD4B3CCD0F20022
:10003300B0D7C8D5D2C0C9BDBEA1A3AC00BBC6BA98
:10004300D3C8EBBAA3C1F7A1A300D3FBC7EEC7A7DD
:10005300C0EFC4BFA3AC00B8FCC9CFD2BBB2E3C2EC
:10006300A5A1A300B5C7F0D9C8B8C2A5002820CC64
:10007300C62029CDF5D6AEBBC00008201C101C1C21
:10008300FF9E7F1E1C1F3E1F3E1F771F413F007EAA
:1000930000FE83FC7FF83FF00FC00000000000006B
:1000A30000000000000000000000FFFFFF9F0000B1
:1000B3000F0E0000000019FFFFFF0000000000000A
:1000C3001FBF8000000000000000000000000000CF
:1000D3001FFD8000000000000000FFFFF3E00000B0
:1000E3001FFD80000000003FFFFF00000000000034
:1000F3000FFA000000000180000000000000000073
:1001030007F40000000000000000FFFFF000000003
:1001130003F801FFFFE00007FFFF0000000FFFFCF3
:1001230000F03FFFFFFE003000000000007FFFFFF4
:100133008041FFFFFFFFC0000000FFFF01FFFFFF43
:10014300F0027FFFFFFFE003FFFF000003FFFFFF5D
:10015300F8043FFFFFFFF000000000001FFFFFFF58
:10016300FC0873FFFFFFF8000000FFE43F7FFFFF81
:10017300FF302FFFFFFFFE007FFF0000FE9FFFFF0A
:10018300FFB01DFFFFFF3F0000000000FF7FFFFFE8
:10019300FFC2233FFFFE1F800000FFE1FFFFFFFFC1
:1001A300FCC592FFB7B8C9807FFF0003FFFFFFFFC5
:1001B300FC4FEF3FC81A20C000000003FFFFFFFF02
:1001C300F87FFFFF7586F6C00000FF03EF9FFBFF7C
:1001D300F87FFFFFFBDFFEC07FFF0007DE7FC7FF67
:1001E300F07E7FFFFFFFFFC0000000071CF79FDFCB
:1001F300F07E7FFFFFFFFFC00000FC07008C1FBFE6
:10020300E73C3FFFFFFFFFC07FFF000700081C3FE5
:10021300883C7FFFFFFFFFC0000000060C08987FAB
:10022300800D9FFFFFFFFFC00000FC061CE399FF4A
:10023300000C0FFFFFFFFFC05FFF0006F1E383FE2B
:10024300000803DFFFFFFFC000000006F1F7C7FE51
:10025300000801CFFFFFFFC00000FC06F3F7C7FC57
:1002630003080001FFFFFFC0BFFF0007F3FFE7F034
:1002730003098000FFFFFFC000000007FFFFFFE04E
:10028300030980003FFFFF800000FC07FFFFFFC062
:10029300030980000FFFFF83FFFF0007FFE0FE005D
:1002A3000309800007FFFF8000000007FF807C0038
:1002B30007B180000783FF000000FF07FF0C000069
:1002C3007FB3C0000601FE03FFFF0007FF0300002A
:1002D3001F43FC000638FE0000000007FF03000078
:1002E3000081F0000440F8000000FC87FF000000DC
:1002F300008000000440F007FFFF0007FF80002C90
:10030300008000000000E00000000007FF800052B2
:10031300004000000001E0000000FF83FFF0802C9C
:10032300004000000001C07FFFFF0003FFFF8000CB
:10033300003000000186000000000003FFFF800082
:100343000038000001F800000000FFA3FFFF800059
:100353000044000001FF007FFFFF0003FFFF800058
:100363000382000001C0C00000000003FFFF800003
:100373001C01C0000078C0000000FF81FFFFC03FE8
:10038300E0003C000780207FFFFF0001FFFFE0400B
:10039300000003FE7800200000000001FFFFF8408A
:1003A30000000021800010000000FFC1FFFFFC409F
:1003B3000000002E0000104FFFFF0001FFFFFE2092
:1003C300000000300000300000000000FFFFFFA02D
:1003D300000000C00001F8000000FFE0FFFFFBE0A9
:1003E300000000C00003FE07FFFF0000FFFFFDE069
:1003F300000000C0001FFF0000000000FFFFFE70B0
:10040300000001E0003FFF800000FFC0FFFFFFB0DE
:10041300000001E0007FFFC03FFF0000FFFFFFDCA3
:10042300000003F781FFFFF000000001FF807FDC85
:1004330000000FFFC3FFFFF80000FF01FF001FEEE6
:10044300000013FFF7FFFFFC07FF0001FE0007EFAB
:1004530000001FFFFFFFFFFF00000001FC0003F38C
:10046300000013FFBFFFFFFF8000FF01FC0001F34B
:1004730080001FFFBFFFFFFF83FF0001F00001FDAE
:1004830080000FFF7FFFFFFFC0000003F00000723A
:10049300E00003FEFFFFFFFFC000000000000000BC
:1004A3000000000000000000000000000000000049
:1004B3000000000000000000000000000000000039
:1004C3000000000000000000000000000000000029
:1004D30000000000002000000000000000000000F9
:1004E30000000400002000000000000000000000E5
:1004F30000000300004008000000000000000000AE
:100503000000008000400800000000000000000020
:100513000000006000403800000000000000000000
:100523000000001000006000060000000000000052
:1005330000000008000180003800000000000000F7
:100543000000000603C00003C0000000000000001C
:10055300000000011C38001C000000000000000027
:1005630000000000200400E0000000000000000084
:100573000000000040020300000000000000000033
:10058300000E0000800100000000000000000000D9
:100593000001F001000080000000000000000000E6
:1005A30000000F01000080000000000000000000B8
:1005B300000000E100008000000000000F80000048
:1005C30000000002000040000000000018C000000E
:1005D3000000000200004000000000001040000086
:1005E30000000002000041C00000000030603FC076
:1005F300000000020000403E000000002023C06015
:100603000000006100008001C0000000403C0018B1
:1006130000C007C100008000000000004018000473
:1006230001A01C010000800000000000400800063B
:10063300021C00008001000000000000C00800014F
:100643008C0380004002000000000000800C0000CA
:100653005800600620042000000000010004000090
:100663002000101C1C3818000000000100060000C8
:100673003000083003C00700000000010002000042
:100683001800046000000180000000020000000068
:100693000C00030000000040000000020000000006
:1006A3000400008002080030000000040000000085
:1006B30000000060020800180000000C00007FFC2E
:1006C30000000020020400000000000C00000002F3
:1006D30000000018020400000000001800000002DF
:1006E30000000007F20200000000003000000FFCD1
:1006F3000000000002020000000000600000100083
:100703000000000000010000000000400000100095
:1007130000000000000100000000018000000FFF46
:10072300FFFFFFE000008000000001000000000068
:1007330000000000000000000000000000000000B6
:1007430000000000000000000000000000000000A6
:100753000000000000000000000000000000000096
:100763000000000000000000000000000000000086
:100773000F1C000000000000C0000000000000008B
:10078300198C000000000000C00000000000000001
:1007930030CC000000000000C00001000000010098
:1007A3000100010022102210004801007DFC01001D
:1007B30001007FFC11101110024C010045042104BB
:1007C3003FFC010011201120F150010049042104D4
:1007D30001003FF807FC07FC97FE7FFE4904210454
:1007E300093000008040804090E001005104210462
:1007F30005201FF0504050409150010049FC3FFC40
:100803000340101057FC57FC924E0100450421048D
:100813007FFE1FF0104010409D44028045040100FC
:1008230001800440204020409100024045042104FF
:100833000340FFFE2FFE2FFEF7FC04206904210472
:1008430005200000E040E04092100510510421040F
:1008530009181FF0204020408320089841FC210400
:10086300310E10102040204000E010CC41043FFC2A
:10087300C1041010204020400118208640000100D0
:1008830001001FF020402040020C40044000000003
:0A089300010000002040204004088E
:100D3600C2A3D2A4D2A57580FFE58020E0FBC2A5A0
:010D4600228A
:100A3000C2A4D2A5EF5402C43354E0FEEF5401C463
:100A400033333354804EFEEF540433333354F84E73
:100A5000FEEF540825E04EFEEF5410C3134EFEEF98
:100A60005420131313541F4EFEEF5440FDC413546F
:100A7000074EFEEF5480C413131354014EF5807FCC
:030A8000057E00F0
:100A8300E4FDFCC3ED9FEC9E5015E4FBFA0BBB00A9
:0F0A9300010AEB640A4A70F50DBD00010C80E406
:010AA2002231
:0F0D00002480FF120D0FE92480FF120D0F7F30AA
:0D0D0F00120D36C2A3120A30C2A5020A83DB
:0D0D1C00142509F582E5083EF583E493FFF8
:0D0D2900120D36D2A3120A30C2A5020A83B1
:100B9F007FD07E07120A837F30120D0F7F0A7E00EF
:100BAF00120A837F30120D0F120A7F7F0C120D0F66
:100BBF007F0A7E00120A837F01120D0F7FF47E01E0
:0E0BCF00120A837F06120D0FE4FFFE020A8356
:100B56007F30120D0F7F40120D0FE4F508F509E501
:100B66000925E0FFE50833FE747D2FF58274001237
:100B76000D23E50925E0FFE50833FE747E2FF58297
:100B86007400120D230509E50970020508C39410C7
:080B9600E5086480948040C76B
:010B9E002234
:100CB2008E088F09850982850883E493FFD3940007
:100CC2004014120D290509E509700205087F327EDC
:070CD20000120A8380DE22FC
:100BDD007F01120D0F120A7F7F80120D0F7E007F95
:100BED0003120CB27F90120D0F7E007F0C120CB20F
:100BFD007F88120D0F7E007F1B120CB27F98120D95
:080C0D000F7E007F2A020CB2E9
:040AA3008E088F0921
:100AA700E4F50AF50BF50DE50DC394095049E4F596
:100AB7000CE4F97F36120D0FE50C2480FF120D0FA1
:100AC700E92480250D120D09050BE50BAE0A70020E
:100AD700050A120D1C050BE50BAE0A7002050A127A
:100AE7000D1C09B908CD050CE50CC3942040C27450
:070AF70008250DF50D80B08C
:010AFE0022D5
:100CD900E4F508E4F97F34120D0FE508120D00E47C
:100CE900FF120D29E4FF120D2909B910E80508E5DD
:060CF90008C3944040DD39
:010CFF0022D2
:020C80008F09DA
:100C8200E4F50AE4F97F36120D0FE50A120D00AF02
:100C920009120D29AF09120D2909B910E8050AE553
:100CA2000AC3942040DD7F34120D0F7F36020D0FF0
:100C4B00E4F509F5086309FFE4F97F36120D0FE5AA
:100C5B0008120D00AF09120D29AF09120D2909B9A0
:100C6B0010E80508E508C3942040DA7F34120D0F15
:050C7B007F36020D0FA1
:10099B00E4FF120C80E4F9E9C394095043E4F50831
:1009AB007F36120D0FE508120D007F80120D29E422
:1009BB00FF120D297F36120D0FE5082480FF120D53
:1009CB000FE92487120D09E4FF120D297F01120D87
:1009DB00290508E508C3942040C6740829F980B797
:1009EB00E4F508E4F97F36120D0FE50875F01FA446
:1009FB002480FF120D0FE92480FFE50875F008A491
:100A0B002F120D097FFF120D297FFF120D2909B936
:100A1B0008D30508E508C3940240C87F34120D0FB4
:050A2B007F36020D0FF3
:100C1500E4F508E508C39409502BE4F97F36120D75
:100C25000FE92480FF120D0FE5082486120D09E453
:100C3500FF120D297F14120D2909B920DF7408252B
:050C450008F50880CE57
:010C4A002287
:0C0D47007F01120D0F7F0A7E00020A835C
:070AFF007FD07E07120A837D
:100B06007F30120D0F120D477F80120D0F7E007F72
:100B160033120CB27F90120D0F7E007F40120CB282
:100B26007F88120D0F7E007F4D120CB27F98120D3A
:100B36000F7E007F5A120CB27FB3120D0F7E007F1C
:100B460067120CB27FAA120D0F7E007F70020CB2E4
:10089D00C2A67F2C7E01120A83D2A6C2A4120B9F80
:1008AD00120B56120BDD7FD07E07120A83120CD964
:1008BD00120D477E047F9D120AA37F307E75120AAA
:1008CD00837E007F9D120AA37F207E4E120A837FB6
:1008DD00FF120C807FD07E07120A83120C4B7FD043
:1008ED007E07120A837FAA120C807FD07E07120A20
:1008FD008312099B120AFF120CD97F87120D0FE488
:10090D00FF120D29E4FF120D297F907E01120A833B
:10091D00120C157F407E1F120A837F30120D0F12AD
:10092D000AFF7F707E17120A83E4F97F18120D0FEC
:10093D007FD07E07120A8309B908F0120B067F706B
:10094D007E17120A837F36120D0F7F04120D0F7F53
:10095D00707E17120A837F04120D0F7F707E17129F
:10096D000A837F05120D0F7F707E17120A837F0594
:10097D00120D0F7F707E17120A837F03120D0F7FEA
:0E098D0060120D0F7F707E17120A8302089D04
:03000000020D539B
:0C0D5300787FE4F6D8FD75810D02089D44
:00000001FF
