:1001DA0000C000F900A400B000990092008200F863
:0401EA000080009001
:0C01FF000A0800002E00000000DF430A88
:0B020C00EF1FAC0670011E4C70F622C4
:10018200E4FDFCC3ED9FEC9E5015E4FBFA0BBB00B3
:0F019200010AEB64644A70F50DBD00010C80E4B6
:0101A100223B
:080222008F993099FDC2992269
:10015E00E4D2B77F08FE12020CC2B77F507E0012A7
:10016E00020CD2B77F0E7E0012020CA2B77F147E55
:04017E000002020C6D
:1001A200E4FB7D08C2B7EBC313FBD2B730B70343FE
:0D01B20003807F047E0012020CDDE9AF0324
:0101BF00221D
:0201C000AD0789
:1001C2007B08C2B7ED1392B77F027E0012020CD2F7
:0701D200B7EDC313FDDBEBE9
:0101D9002203
:10010000E4FAFFFEFD12015E7FCC1201C07F4412B3
:1001100001C012015E7FCC1201C07FBE1201C0126D
:1001200001A2AA071201A2EAC4540FFEEFC454F0C0
:100130002EFE75F00A84F508EE75F00A8485F00944
:10014000EA540FFE7D03EE75F00AA4FEC4540FFFBF
:0D01500074082DF8A60753060F0DBD07E932
:01015D00227F
:1001EE00758920759850758DFD758BFDD28EC299CF
:0101FE0022DE
:10008F00E4F9E50825E024DAF582E43401F5837418
:10009F000193F580C2A07F057E00120182D2A0E5F8
:1000AF000925E024DAF582E43401F58374019354D1
:1000BF007FF580C2A1120182D2A1E50B25E024DADF
:1000CF00F582E43401F583740193F580C2A2120125
:1000DF0082D2A2E50C25E024DAF582E43401F5831F
:1000EF00740193F580C2A3120182D2A309B933928E
:0100FF0022DE
:0B0217001201EE12010012008F80F8AF
:03000000020003F8
:0C000300787FE4F6D8FD75811102004AF8
:10000F00020217E493A3F8E493A34003F68001F2EE
:10001F0008DFF48029E493A3F85407240CC8C333F2
:10002F00C4540F4420C8834004F456800146F6DFC1
:10003F00E4800B01020408102040809001FFE47E51
:10004F00019360BCA3FF543F30E509541FFEE493B6
:10005F00A360010ECF54C025E060A840B8E493A37D
:10006F00FAE493A3F8E493A3C8C582C8CAC583CAA8
:10007F00F0A3C8C582C8CAC583CADFE9DEE780BE60
:01020B0000F2
:00000001FF
