:0300000002007982
:0C007900787FE4F6D8FD758108020003D2
:10003700CFC3C3C5D6C7BFD8D6FAC4FAD1A7CFB0E6
:10004700525332333220A3ACC7EBCAB9D3C3B4AED1
:0D005700BFDAB5F7CAD4D6FACAD63A2000EF
:10000300759850438920438780758DF3758BF3D2A0
:100013008ED2ACD2AFE4F508E50890003793600BBD
:10002300F5993099FDC299050880ED7FE87E0312AA
:04003300006480E104
:10006400D3EF9400EE9400400B7DC8DDFEEF1F70CB
:04007400EF1E80EC0F
:010078002265
:00000001FF
