:10000300C0F9A4B0999282F880908880C6C0868E89
:0A034900041000000000021800007C
:0D033B00EFD3940040077E7DDEFE1F80F3AF
:010348002292
:10031400C2A0D2A1D2A2D2A3E51890000393F58083
:100324007F0212033BD2A0C2A1D2A2D2A3E51993A9
:07033400F5807F0202033B8C
:03001300020016D2
:10001600C0E0C0F0C083C082C0D075D008AF8CEFFE
:10002600FEAD8A7C00E42DFFEC3EFEE48F178E16B3
:10003600F515F514F58CF58A7F407E1FFDAB17AAE2
:1000460016A915A814D31202314020E47FB07E36DB
:10005600FDFCA8141202315012751F00751E0075A2
:100066001D00751C00751B01020158E51B6401602B
:10007600030201587FAA7E05FDFCAB17AA16A91537
:10008600A814D31202314048E47FB87E0BFDFCA8C9
:1000960014120231503AE47B08FAF9F8AF1FAE1E8B
:1000A600AD1DAC1C12019F74102FF8E6FEC313445D
:1000B60080FEC00E74102FF8D0E0F6E51F2401F57F
:1000C6001FE4351EF51EE4351DF51DE4351CF51C33
:1000D600E47FBC7E02FDFCAB17AA16A915A814D3B3
:1000E6001202314041E47FAA7E05FDFCA8141202EB
:1000F600315033E47B08FAF9F8AF1FAE1EAD1DACE4
:100106001C12019F74102FF8C008E6FFC313D00815
:10011600F6E51F2401F51FE4351EF51EE4351DF531
:100126001DE4351CF51CE47F20FEFDFCAB1FAA1E5A
:10013600A91DA81CC31202317018F51FF51EF51D66
:10014600F51CF51BE513F4B51205751A0180037548
:0D0156001A00D0D0D082D083D0F0D0E0329B
:1002CE00E4F51FF51EF51DF51CF51BD2AFD28AD233
:1002DE00AA758911F58CF58AD28CE51AB40110E550
:1002EE0012540FF519E512C4540FF518E4F51A7AE5
:1002FE00007B64D3EB9400EA940040DE120314EB0F
:06030E001B70F01A80EDE7
:03000000020242B7
:0C024200787FE4F6D8FD75811F02028968
:1001630075F008758200EF2FFFEE33FECD33CDCC53
:1001730033CCC58233C5829BED9AEC99E5829840D6
:100183000CF582EE9BFEED9AFDEC99FC0FD5F0D6B3
:10019300E4CEFBE4CDFAE4CCF9A88222B800C1B9DD
:1001A3000059BA002DEC8BF084CFCECDFCE5F0CB1B
:1001B300F97818EF2FFFEE33FEED33FDEC33FCEB54
:1001C30033FB10D703994004EB99FB0FD8E5E4F90F
:1001D300FA227818EF2FFFEE33FEED33FDEC33FCFC
:1001E300C933C910D7059BE99A4007EC9BFCE99AF0
:1001F300F90FD8E0E4C9FAE4CCFB2275F010EF2F35
:10020300FFEE33FEED33FDCC33CCC833C810D70734
:100213009BEC9AE899400AED9BFDEC9AFCE899F86F
:0E0223000FD5F0DAE4CDFBE4CCFAE4C8F92202
:10023100EB9FF5F0EA9E42F0E99D42F0E89C45F023
:01024100229A
:10024E000202CEE493A3F8E493A34003F68001F2F6
:10025E0008DFF48029E493A3F85407240CC8C333B1
:10026E00C4540F4420C8834004F456800146F6DF80
:10027E00E4800B0102040810204080900349E47EC4
:10028E00019360BCA3FF543F30E509541FFEE49375
:10029E00A360010ECF54C025E060A840B8E493A33C
:1002AE00FAE493A3F8E493A3C8C582C8CAC583CA67
:1002BE00F0A3C8C582C8CAC583CADFE9DEE780BE1F
:0103530000A9
:00000001FF
