:03000000020003F8
:0C000300787FE4F6D8FD7581200201C66C
:100243002052656420436F6E74726F6C200020200F
:0F02530049522D434F44453A202D2D482020007D
:10029600C2A3D2A4D2A500000000E580139201C239
:0302A600A5A2010D
:0102A9002232
:1001000012029640FBC2A3C2A4C2A50000EF540293
:10011000C43354E0FEEF5401C433333354804EFEF5
:10012000EF540433333354F84EFEEF540825E04EB9
:10013000FEEF5410C3134EFEEF5420131313541F3D
:100140004EFEEF5440C41354074EFEEF5480C413C8
:10015000131354014EF58000000000D2A5000000EA
:0401600000C2A52212
:1001640012029640FBD2A3C2A4C2A5EF5402C43328
:1001740054E0FEEF5401C433333354804EFEEF5445
:100184000433333354F84EFEEF540825E04EFEEFAB
:100194005410C3134EFEEF5420131313541F4EFE7A
:1001A400EF5440C41354074EFEEF5480C41313138A
:1001B40054014EF58000000000D2A500000000C2EA
:0201C400A52272
:100208007F0F7E001202667F381201001202627FA1
:10021800381201001202627F381201001202627F56
:100228000C1201001202627F061201001202627FA4
:0B023800011201007F057E000202663B
:0702BC00EF4480FF02010086
:1001C600D2B3D295D2947F0A7E001202661202083A
:1001D600E4FF1202BCE4FCEC90024393FF600612BB
:1001E60001640C80F27F401202BCE4FCEC900251E8
:1001F60093FF60061201640C80F2D28AD2AAD2AFB3
:0202060080FE78
:03001300020016D2
:0D001600C0E0C0F0C083C082C0D075D00033
:10002300751100C2AA7F0F1202AA30B305D2AA0229
:1000330000F520B3077F011202AA80F6750F007541
:10004300100030B3077F011202AA80F620B3077FA6
:10005300011202AA80F630B3137F011202AA05111E
:10006300E511C3941E40EFD2AA0200F57408250FD0
:10007300F8C000E6FFC313D000F6E511C3940840AF
:10008300097408250FF8E64480F67511000510E59C
:1000930010C3940840AC050FE50FC3940440A0E5DA
:1000A3000BF4650A6004D2AA8048E50A540FF50DE3
:1000B300E50AC4540FF50EE50DD3940940047437D3
:1000C30080027430250DF50DE50ED39409400474B8
:1000D3003780027430250EF50E7F4B1202BCAF0E33
:1000E3001201647F4C1202BCAF0D12016412028034
:0200F300D2AA8F
:0B00F500D0D0D082D083D0F0D0E03219
:10028000E4F5127F041202AAB2950512E512C39496
:050290006440F0D2956E
:010295002246
:1002AA00AD071FED600BE4FEEEC3940D50F20E8015
:0102BA00F74C
:0102BB002220
:040262007F057E0096
:10026600EF1FAA0670011E4A600FE4FDEDC394FA63
:0902760050EE000000000D80F3C1
:01027F00225C
:00000001FF
