:03000000020030CB
:03000B0002008C64
:03001B0002005F81
:1000300075300075310075320075330079637A3B95
:100040007F0A75891175885075A888758C4C758ADA
:1000500000758DDC758B0020000312009B01577525
:100060008DDC758B00B200E975F00A84F53285F0FD
:1000700033EA75F00A84F53085F03119B9FF0C794F
:10008000631ABAFF067A00C2ABD2A932758C4C75DE
:100090008A00DF067F0AB200B2A0329000DCE533AE
:1000A00093F580C2A31200CFD2A3E53293F580C2AC
:1000B000A21200CFD2A2E53193F580C2A11200CFE7
:1000C000D2A1E53093F580C2A01200CFD2A0227554
:1000D0003414753528D535FDD534F722C0F9A4B0D0
:0600E000999282F8809065
:00000001FF
