:0300000002008D6E
:0C008D00787FE4F6D8FD758109020003BD
:100051007777772E6D756373747564696F2E636F2F
:060061006D2E636E0A0023
:10000300758920758DF3758BF3759850438780D26E
:100013008EE4F5A820A7157F0A12007B20A72E20C7
:10002300A7077F0A12007B80F61200673098E5C2AB
:1000330098AF997508008F09C374FF9509F509E412
:0E0043009508F508AF098F9012000080C722C3
:10006700E4FFEF90005193600AF5993099FDC2992A
:030077000F80EF08
:01007A002263
:10007B00AD071FED600BE4FEEEC3947850F20E80DB
:01008B00F77D
:01008C002251
:00000001FF
