:1002FE00564F4C544147453A2B20202E2020205655
:10030E000064657369676E6564206279203A004DFA
:10031E00554353545544494F0053434F50453A208B
:0A032E0020302D35302E30305600FF
:0A0369000811000000000000000071
:1001DA00EF5402C43354E0FEEF5401C433333354B2
:1001EA00804EFEEF540433333354F84EFEEF540876
:1001FA0025E04EFEEF5410C3134EFEEF54201313A6
:10020A0013541F4EFEEF5440FDC41354074EFEEF25
:10021A005480C413131354014EF5807F057E0012D7
:08022A000232D2A57F057E001F
:10023200D3EF9400EE940040147D6E7C00ED1D70AF
:0D024200011CED4C70F7EF1F70E61E80E30D
:01024F00228C
:08037400C2A31201DAC2A522A6
:08037C00D2A31201DAC2A5228E
:04033800AD0F7F097D
:10033C00ED75F00A84FBED75F00A84AAF0EF2480C9
:10034C00FF120374EB2430FF12037CEA2430FF020B
:02035C00037C20
:10025000C2A4C2A5E4F50FF5107F381203747F0C19
:100260001203747F061203747F011203747F8012DD
:100270000374E4F509E50990030F93FF12037C1260
:10028000022E0509E509C3940D40EA7FA812037404
:10029000E50AC394105011E50A90031D93FF120361
:0F02A0007C12022E050A80E87FB87E0B02023224
:1002AF007F80120374E4F519E5199002FE93FF1293
:1002BF00037C12022E0519E519C3941040EA1203AC
:1002CF0038AD107F0C12033C7FA8120374E508C3EE
:1002DF0094105011E50890032793FF12037C12022C
:0F02EF002E050880E8120338AD107F0C02033C87
:10000300D293C293E4F50DF50EFDC297E50E25E0FC
:10001300F50EE50D33F50D309608050EE50E70026D
:10002300050DD2970DBD0AE27F4E7E02120232D237
:1000330093AE0DAF0E7C007D0A1200B18E0D8F0EB4
:100043007DCD1201188E158F16AE0DAF0E7C007D7F
:10005300CD1201188C178D18AE17AF187C007D0ACE
:100063001200B18E178F187DCD1200C38E138F141B
:10007300AE17AF187C007DCD1200C38C178D18AE60
:1000830017AF187C007D0A1200B18E178F187DCD33
:100093001200C38E118F1285160FE51475F00AA492
:0E00A3002512F510120338AD107F0C02033C3D
:0B035E001202501202AF12000380FBDD
:0300000002014EAC
:0C014E00787FE4F6D8FD75811902019558
:1000B100EF8DF0A4A8F0CF8CF0A428CE8DF0A42E63
:0200C100FE221D
:1000C300BC000BBE0029EF8DF084FFADF022E4CC21
:1000D300F875F008EF2FFFEE33FEEC33FCEE9DECEA
:1000E300984005FCEE9DFE0FD5F0E9E4CEFD22ED30
:1000F300F8F5F0EE8420D21CFEADF075F008EF2F7A
:10010300FFED33FD4007985006D5F0F222C398FD6A
:050113000FD5F0EA2207
:10011800C2D5EC30E709B2D5E4C39DFDE49CFCEE02
:1001280030E715B2D5E4C39FFFE49EFE1200C3C3B7
:10013800E49DFDE49CFC80031200C330D507C3E4B2
:060148009FFFE49EFE2271
:10015A0002035EE493A3F8E493A34003F68001F25A
:10016A0008DFF48029E493A3F85407240CC8C333A6
:10017A00C4540F4420C8834004F456800146F6DF75
:10018A00E4800B0102040810204080900369E47E99
:10019A00019360BCA3FF543F30E509541FFEE4936A
:1001AA00A360010ECF54C025E060A840B8E493A331
:1001BA00FAE493A3F8E493A3C8C582C8CAC583CA5C
:1001CA00F0A3C8C582C8CAC583CADFE9DEE780BE14
:010373000089
:00000001FF
