:03000000020026D5
:0C002600787FE4F6D8FD75813702006D8C
:0C025100042B00060C0F0425000303031F
:09000E007F01120017D2977F0553
:0A001700E4FEEEC39F50030E80F8D4
:0100210022BC
:10024000D29612000EC296120017C2977F020200C9
:010250001796
:0B026A00C29612000ED2961F02001771
:02012000AD0729
:10012200E4FCEDA804088002C333D8FC30E704D213
:10013200968002C29612000EC2970CBC08E47F029F
:10014200120017D296120017D2970F12001730968C
:0E01520004C2008002D200C2977F1402001780
:10022C00AB071202407FE0120120AF031201201233
:04023C00026AD3225D
:1001AA00752F05E4F530F532F531F533F536F535C9
:1001BA007521C8F522F523F534F537F594F593F54D
:0401CA0091F59222F7
:10016000759850438920438780758DFD758BF343C7
:100170008901758CFE758AFDD2A9D2ACD2AFD2BCF2
:05018000D28CD28E229A
:0C025E00E535C39420500205358F29229D
:1001CE00E535C39401400FE536700B20990885295B
:1001DE00997536011535E536B40108309905E4F503
:0401EE0036C299225A
:1001F200AA07753201E4F531852133752F0A742B74
:0E0202002AF8E6FF12022C8A24AF0202025EE6
:1000B2001201AA1201607F031201F2E530D3940902
:1000C2004005E4F5300531E530C3952F4006C28185
:1000D200C2828004D281D282E532B40114E531D3E6
:1000E2009533401CE4F53274252524F8E6F52F807B
:1000F2000F208604E4FF80052087057F031201F2AA
:100102001201CED3E52394E8E522940340ADE5370E
:0E011200640170A77F031201F2E4F537809DAF
:03000B00020210DE
:10021000C0E0758CFD758AFD0530E5347008052356
:0C022000E52370020522753400D0E032A6
:0300230002018552
:10018500C0E0C0D075D008309816C29885992AAFBE
:100195002A12025E75340175220075230075370138
:0501A500D0D0D0E032D3
:100032000200B2E493A3F8E493A34003F68001F232
:1000420008DFF48029E493A3F85407240CC8C333CF
:10005200C4540F4420C8834004F456800146F6DF9E
:10006200E4800B0102040810204080900251E47EDB
:10007200019360BCA3FF543F30E509541FFEE49393
:10008200A360010ECF54C025E060A840B8E493A35A
:10009200FAE493A3F8E493A3C8C582C8CAC583CA85
:1000A200F0A3C8C582C8CAC583CADFE9DEE780BE3D
:01025D0000A0
:00000001FF
