:0400000002002B329D
:01000B0032C2
:0100130032BA
:01001B0032B2
:030023000200D701
:0300840002002651
:050026001200CF80FE76
:0E008700759850438920438780758DFD758BD9
:0A009500F3D2ACD2AFD2BCD28E225F
:0A009F00AF8274E025104002051046
:0300A9008F122291
:0A00AC0074FF2510500FE513700BD0
:0A00B60020990885129975130115B1
:0100C000102F
:0A00C1007401B5130830990575139A
:0300CB0000C299D7
:0100CE00220F
:0300CF0012008795
:0500D2001200AC80FBF0
:0C00D700C020C0E0C0F0C082C083C007A1
:0E00E300C006C005C004C003C002C001C000BA
:0700F100C0D010980280123C
:0A00F80085991185118275D0001260
:08010200009F75D008851190E3
:0E010A00D0D0D000D001D002D003D004D00558
:0D011800D006D007D083D082D0F0D0E0D048
:02012500203286
:06005A00E478FFF6D8FD7A
:080038007900E94400601B7A25
:050040000090012B7887
:030045000075A0A3
:0A00480000E493F2A308B8000205DB
:08005200A0D9F4DAF275A0FF59
:080060007800E84400600A7911
:030068000075A080
:06006B0000E4F309D8FCDB
:080071007800E84400600C79FE
:0B00790000900000E4F0A3D8FCD9FACE
:03002B00758120BC
:0A002E00120127E58260030200269C
:0401270075820022BB
:00000001FF
