:0400000002002B329D
:03000B0002028965
:0100130032BA
:01001B0032B2
:030023000202A92D
:07008400752C00752D0675B7
:06008B002E0C752F0F750D
:0600910031007532037519
:060097003303753403750C
:06009D000094750193754B
:0600A30002917503927545
:0200A90004C988
:0300AB000200262A
:0500260012021780FE2C
:0400AE00AF827E009F
:0800B200C3EE9F50030E80F81D
:0100BA002223
:0E00BB00D2967582011200AED29775820512A0
:0E00C90000AEC2967582051200AEC297758217
:0400D700020200AE73
:0E00DB00C2967582011200AED2977582051290
:0A00E90000AED2967582040200AE4C
:0400F300AF827E005A
:0300F700BE080040
:0C00FA0050388F047D008EF005F0800669
:06010600EC2CFCED33FDC2
:0B010C00D5F0F7EC30E704D29680023B
:02011700C2968E
:0E011900758201C007C0061200AED297758233
:0D012700051200AED006D007C2970E80C3AF
:0E0134007582021200AED2967582021200AEE3
:0C014200D2977582031200AE309604C202
:03014E000080022C
:02015100D200DA
:08015300C2977582140200AE90
:0E015B00AF82C0071200BB7582E01200F3D025
:0B016900078F821200F31200DBD3228C
:0701740075230575220075DB
:06017B002400752500754B
:0601810026007528007540
:0701870029007527C8E4F50B
:04018E0035F536F518
:0401920037F538F510
:0401960000F50175FA
:06019A00020075030022C3
:0E01A000759850438920438780758DFD758BBF
:0E01AE00F3438901758CFE758AFDD2A9D2AC8F
:0901BC00D2AFD2BCD28CD28E224B
:0A01C500AF8274E0252940020529ED
:0301CF008F2B2251
:0A01D20074FF2529500FE528700B7B
:0A01DC00209908852B99752801155C
:0101E60029EF
:0A01E7007401B52808309905752849
:0301F10000C299B0
:0101F40022E8
:0901F500AF827524017525008517
:0301FE002726753C
:0A020100230AEF242CF98782C007BE
:0A020B0012015BD0078F308F8202D2
:0202150001C521
:0A0217001201741201A07582031297
:0202210001F5E5
:0A022300E52224F6500575220005BF
:01022D0025AB
:0A022E00C3E52295234006C281C2F9
:03023800828004BD
:04023B00D281D28218
:09023F007401B52413C3E52695F2
:07024800255020752400E59C
:05024F00302431F987A5
:03025400238014F0
:0B0257002086087582001201F5800966
:090262002087067582031201F5E4
:0B026B001201D2C374E89535740395AE
:0A0276003650AA7401B538A5758250
:09028000031201F5753800809AA3
:0C028900C0E0C0D0758CFD758AFD052218
:08029500E53770080535E4B5FA
:04029D0035020536EB
:0802A100753700D0D0D0E03227
:0C02A900C021C0E0C0F0C082C083C007CC
:0E02B500C006C005C004C003C002C001C000E6
:0702C300C0D0109802801A60
:0A02CA0085992A852A8275D000125A
:0A02D40001C575D008753701E4F587
:0402DE0035F5367547
:0202E2003801E1
:0E02E400D0D0D000D001D002D003D004D0057D
:0D02F200D006D007D083D082D0F0D0E0D06D
:0202FF002132AA
:06005A00E478FFF6D8FD7A
:080038007900E94400601B7A25
:050040000090030578AB
:030045000075A0A3
:0A00480000E493F2A308B8000205DB
:08005200A0D9F4DAF275A0FF59
:080060007800E84400600A7911
:030068000075A080
:06006B0000E4F309D8FCDB
:080071007800E84400600C79FE
:0B00790000900000E4F0A3D8FCD9FACE
:03002B00758138A4
:0A002E00120301E5826003020026C0
:0403010075820022DF
:00000001FF
