:100F0A00C4E3BAC3A3A1CED2CAC7B5A5C6ACBBFABD
:100F1A0053544338394335313652432BA3A1CED2E9
:100F2A00BBE1D7F7BCC6CBE3CCE2A3A10A00C7EB6F
:100F3A00C4E3CAE4C8EBC1BDB8F658BACD590A0031
:0E0F4A0025662C2566000A007A3D25660A0001
:100E9200759850758920758DE8758BE8D299D28E38
:100EA2007BFF7A0F790A1206507BFF7A0F7938128C
:100EB2000650753100753200753322753400753570
:100EC200007536267BFF7A0F794A120ADFAF29AE08
:100ED20028AD27AC26AB25AA24A923A822120003F9
:100EE2008F2D8E2C8D2B8C2A7BFF7A0F7950120638
:100EF200507BFF7A0F7952852D34852C33852B3226
:080F0200852A31120650809887
:10000300EC4D6011E8497017ED33EC3304600DE4F7
:10001300FCFFFEFD22E933E8330470F802013E12CF
:10002300010958046009E4CC2481500628500902D0
:100033000148284003020145C0E0EB4A7044B980FF
:1000430006D0E0FB020134EF4E701CBD8008EBFFCD
:10005300EAFEE9FD80EBE98DF0A4FEE5F00200EC99
:10006300E9CDF9EAFEEBFFEF89F0A4FCE5F0CE89D8
:10007300F0A42EFFE435F0CD89F0A42DFEE435F095
:100083008067EF4E7005BD80D780C3EF8BF0A4ACC3
:10009300F0EE8BF0A42CFCE435F0F8EF8AF0A42CFE
:1000A300E5F038FCE433CB8DF0A42CFCE5F03BF811
:1000B300EE8AF0A42CFCE5F038F8E433CF89F0A401
:1000C3002CFCE5F038CF3400CE89F0A42FFFE5F007
:1000D3003EFEE433C98DF0A42EFEE5F039CD8AF05F
:1000E300A42FFFE5F03EFEE43DFD33D0E0FB5007D7
:1000F3000BBB000F020148EC2CFCEF33FFEE33FE89
:06010300ED33FD020120B6
:1005EE00E5452431F8E6054522782E3007027831AC
:1005FE00E475F0011205840204DC2000EB7F2ED29C
:10060E00008018EF540F2490D43440D4FF30040BE4
:10061E00EF24BFB41A0050032461FFE546600215B3
:10062E00460549E5497002054830070D782EE475F8
:10063E00F001120584EF020522020F587403D2074F
:10064E008003E4C207F5458B2E8A2F8930E4F546E8
:10065E00F548F549E54660077F2012062980F575B5
:10066E0047FFC201C200C202C203C205C206C208CF
:10067E001205F7FF700D3007057F0012063AAF49DD
:10068E00AE4822B4255FC2D5C2041205F7FF24D0AE
:10069E00B40A00501A75F00A784630D50508B6FF30
:1006AE000106C6A426F620D5047002D20380D924F2
:1006BE00CFB41A00EF5004C2E5D204020927D201CA
:1006CE0080C6D20080C0D20280BCD2D580BAD205FC
:1006DE0080B47F201206292002077401B54600401F
:1006EE00F11205EEFF120629020662D208D206802A
:1006FE00951205EEFB1205EEFA1205EEF94A4B7055
:10070E0006791E7A0A7BFF20022EE546602A7E00BD
:10071E008E827583001204F560060EEE654770F04A
:10072E00C2D5EBC0E0EAC0E0E9C0E0EE120987D026
:10073E00E0F9D0E0FAD0E0FB1204DCFF60AAEBC0D7
:10074E00E0EAC0E0E9C0E0120629D0E02401F9D0C9
:10075E00E03400FAD0E0FBE5470460DCD547D980F1
:10076E0087D20280A212096A60F7E547700104126F
:10077E000153A947600DE547600914F547120A11A8
:10078E00EF60F3EA30E702F404C3995077EAF425F8
:10079E00470430E701E404F547800D12096A60C191
:1007AE00EA05472547120153EA7844F630E701E49B
:1007BE00254704D5470420050114120987E4C0E03B
:1007CE00120A117844E6601320E70714F612061198
:1007DE00802204F6D0E014C0E07F00120611E54737
:1007EE0060071206081547800B300503120608D065
:1007FE00E0020662D0E00480C512096A60A0E547F7
:10080E00041201537844EAF6E5472005026001041C
:05081E0024041209870B
:1008230074FF04C0E0120A11120611E54720050205
:100833006003120608D0E0B547E87F4512061B782F
:1008430044E67F2B30E7047F2DF404C0E012062931
:10085300D0E075F00A84C0F0120612D0E01206123E
:10086300020662791080027908C206C2088008D2A3
:10087300D5790A8004790AC2D5E547047002F547A1
:10088300E4FAFDFEFF1205EEFC7B082001131205BE
:10089300EEFD7B1030000A1205EEFE1205EEFF7B23
:1008A30020EC3382D592D55013C3E43000069FFF6A
:1008B300E49EFEE42001039DFDE49CFCE4CBF8C22E
:1008C30001EC700CCFCECDCCE824F8F870F3801790
:1008D300C3EF33FFEE33FEED33FDEC33FCEB33FBC1
:1008E300994002FB0FD8E9EB300105F8D0E0C4488A
:1008F300B201C0E00AEC4D4E4F78207B0070C2EA93
:10090300B5470040BCC0E0120989D0F0D0E0200117
:1009130004C4C0E0C4B201C0F0120612D0F0D5F096
:10092300EB0206621205A406FF5308665806D04C74
:1009330006CC42086A4F08724408724906E5430828
:10094300785507A9460807450773470A3E5006D45A
:100953002D06D82E06FB2B06DC2306F9200A272AB0
:10096300069448000006F3E547B4FF0375470612F3
:1009730005EEFC1205EEFD1205EEFE1205EEFF7804
:100983003D020182790AA2D5200314300509B9106A
:10099300020404B9080104A2D52006025001042070
:1009A30002689202B546005034C0E07F203003193C
:1009B3007F30A20272067205500F1209E0C202C212
:1009C30006C205C2087F30800F300503E9C0E0127C
:1009D3000629300503D0E0F9D0E0B546CC30051741
:1009E3007F30B9100C1206297F583004077F7880B6
:1009F30003B908031206293002057F2D0206297F59
:100A0300202008F87F2B2006F322920280CF7F005C
:100A1300B407005005243DF8E6FF22286E756C6C80
:100A23002900D2011205EE3001F8C201784630D513
:100A33000108F60206942D504349581205EE24038B
:100A4300B405004001E4900A399312061A743A126D
:0A0A5300061AD20375460402086675
:100A5D00E54330030104F823282431F822782E30A1
:100A6D0003027831E475F0011205840204DC60ECB8
:100A7D00C5477002154614C547200304FF020FB980
:100A8D00782E74FFF5F0020594FF020F7FE54460A8
:100A9D0006D544037F002220030F120F92EF60084A
:100AAD000547E5477002054622782E12057B120494
:100ABD00DCFF60E9782EE475F00112058480DE120A
:100ACD000AA4EFC0E0120A96D0E040F380A0D20352
:100ADD008002C2038B2E8A2F8930E4F545F543F54C
:100AED0046F547754400C202C200C201C204120A93
:100AFD006AFF7005AF457E0022B42530120A6AFFE9
:100B0D0024D0B40A00500C75F00AC544A42544F550
:100B1D004480E924CFB41A00EF5002C2E5020D78EB
:100B2D00D20180D8D20080D4D20480D0EF120A96A0
:100B3D005008120ACCEF600E80A9EFC0E0120AA493
:100B4D00D0E06F609EEF6074120A7B80A7120AA43A
:100B5D00EF6069E544700705448003120AA4EF6055
:100B6D001420040E120A5DE475F001120584EF12D3
:100B7D000522D544E62004040543054580BA120A32
:100B8D009AEFC0E0120A96D0E05004120A7BE4FFFF
:100B9D0020040E120A5DE475F001120584EF1205B2
:100BAD0022EF70DA20040405430545808BE544608F
:100BBD00020544120ACC120A9AEF70C6300304E4FF
:100BCD00120A7BE5456003020B017EFF7FFF22E5E4
:100BDD004460020544120ACCD206D205120A9AEFDD
:100BED0030060260D7C0E0120A7BD0E0AC48AD49B8
:100BFD00AE4AAF4B120DBF8C488D498E4A8F4B506C
:100C0D0007120AA4C20580D4200410200502054550
:080C1D00120A5D12057B05437C
:100C2500120561020AF0D0E0809A7900800A7910F5
:100C3500800679088002790AD205E54460020544F8
:100C4500E9C0E0120ACCEF60DD120AA4BF2D04D280
:100C5500028003BF2B09120ACCEF60CA120A9AD090
:100C6500E0B40A028033B40802802EBF3027700238
:100C75007408C205C0E0120A9AD0E0BF780280036A
:100C8500BF58160544D544028007D54404D20580D3
:100C95000B741080197002740ABF000AEFF8E4FCA7
:100CA500FDFEFF020D2BC0E0EF120A7BD0E0F9E458
:100CB500FCFDFEFFE9C0E0ECC0E0EDC0E0EEC0E009
:100CC500EFC0E0120A9AEFF8D0E0FFD0E0FED0E0E6
:100CD500FDD0E0FCD0F0E8604DB461004007B47B86
:100CE500005002C2E524D0503DFA24F6500724F9FD
:100CF5005034240AFAEAB5F000502BCFA9F0A42FFE
:100D0500FF92D5E9C5F0CEA4A2D53EFE92D5E9C5A0
:100D1500F0CDA4A2D53DFD92D5E9C5F0CCA4A2D5D0
:100D25003CFCC205808EE8C0E020042A20050805A9
:100D350045300203120553120A5D12057B05432057
:100D4500000B20010DEE8FF01205348009120561AC
:100D55008004EF120522D0E0120A7B020AF020047B
:100D650010120A5D12057B0543E5468547F012051D
:100D75003480E81205A40BBA530C33580B314C0BD5
:100D85002D420B09480C374F0C3B440B5A430C2F93
:100D9500490C3B550BDC460BDC450BDC470B352A78
:070DA5000D634E00000B3945
:10010900E9D2E7C933E833F892D5EDD2E7CD33EC3C
:0701190033FC5002B2D522B5
:10012000EC30E7100FBF000C0EBE00080DBD000440
:100130000BEB6014A2D5EB13FCED92E7FD2274FFEC
:10014000FCFDFEFF22E480F8A2D574FF13FC7D8045
:03015000E480EF59
:10015300F920E72824F950037907E4F42402FB1873
:10016300DBFDE624FB5014E9600DE4F618E604F623
:0F017300B40A08E4F6D9F57401F60A22C2D522BF
:10018200ED33EC3392D5FA602AB4FF33EDC2E77B4C
:10019200FF60067A0179A7E4227A0179B020D504BA
:1001A2007A0179AB224E614E002B494E46002D4911
:1001B2004E4600E47A08F608DAFC7B00740722E86F
:1001C200C0E0ECC0E0EDC0E0EEC0E0EFC0E0EA75F8
:1001D200F010A4CAABF075F04DA42BFBE435F0FC93
:1001E200EA2410FAEB34C5FBEC34D9FCEDC2E7FF8C
:1001F20075F056A4F42411C5F0F434C58FF0A42A86
:10020200E5F03BE43CF620E71412049CD0E0FFD07A
:10021200E0FED0E0FDD0E0FC1203808014F4041272
:10022200049CD0E0FFD0E0FED0E0FDD0E0FC120064
:1002320003D0E0F8E6FAEDD2E7CD33EC332482FBCB
:10024200E4C3CF33CFCE33CECD33CD33DBF37B0715
:1002520075F00A846004F6081B0AE5F0F6088FF0D0
:10026200740AA4FFACF08EF0740AA42CFEACF05019
:10027200010C8DF0740AA42CFDE435F0F608DBDEE7
:03028200740722DC
:100DAC00C207C208C209C20AF9E4F54CF54DFCFDB4
:100DBC00FEFFE91006EA20090CB42D04D209D32257
:100DCC00B42B02D32224D0504794095041240A302A
:100DDC000A15F8854DF0740AA42872E74051C5F045
:100DEC00704D85F04DD322D208C0E0E4FBFA792097
:100DFC007841120003ECF8EDF9EEFAEFFBD0E0FCD1
:100E0C00E412043812028C3007B4154CD322240A95
:100E1C00200A20B4FE0720071AD207D32224EB6045
:100E2C000424E0700EA2099207D20AC209D322C38D
:100E3C0002013EE4300A0BE54D300902F404A2072E
:100E4C0092093008EA254C20D2E5A2E7920A50021A
:100E5C00F404B4260050D8CCC0E0EDC0E0EEC0E005
:100E6C00EFC0E0EC12049CD0E0FFD0E0FED0E0FD3F
:100E7C00D0E0FC200A051200038003120380300925
:060E8C000312041DC32245
:1002850002013EE86480F8E933E83360110460F068
:10029500ED33EC337009E8FCE9FDEAFEEBFF2204DF
:1002A50060DED3EB9FEA9EE99DE8C2E78CF0C2F7DA
:1002B50095F0400CE8CCF8E9CDF9EACEFAEBCFFBA6
:1002C50012010985D0F05804700320D5B3E80470F5
:1002D500075002B2D502014892D5EC0460F7E4CC90
:1002E500C0E0C398F8603B94186008400DD0E0FB6F
:1002F500020120E4FBFAC9FC8028E830E406E4C9E1
:10030500FBE4CAFCE830E305E4C9CACBFCE85407C2
:100315006010F8C3E913F9EA13FAEB13FBEC13FCCD
:10032500D8F130F52FC3E49CFCEF9BFFEE9AFEED70
:1003350099FDD0E0FBEF4E4D4C701222DB0302011C
:1003450045EC2CFCEF33FFEE33FEED33FDED30E7EE
:10035500EB020120EF2BFFEE3AFEED39FDD0E0FB7D
:1003650050130BBB0003020148ED13FDEE13FEEF26
:0803750013FFEC13FC02012050
:10037D00020148EC5D046005E85904700302013E7A
:10038D00120109580460F6EC4860F2EC7004FDFEB1
:10039D00FF22C860DB2481C85009C3986002500653
:1003AD000201459850CAF582E9294B4A7005AB8286
:1003BD0002013475F0007C1A7880C3EF9BEE9AED44
:1003CD0099400DC3EF9BFFEE9AFEED99FDE842F0CB
:1003DD00DC23ACF0D0E0FFD0E0FED0E0FDAB82201E
:1003ED00E7101BEB60BAEC2CFCEF33FFEE33FEEDA8
:1003FD0033FD020120E803F830E705C0F075F00089
:10040D00EF2FFFEE33FEED33FD40B830E7C280AA8B
:10041D00ED33EC33600A047003BD8004ECB2E7FCED
:01042D0022AC
:10042E0075F020800E75F010800575F0087D007E49
:10043E00007F003392D530D503120553EC334010B4
:10044E00EF33FFEE33FEED33FDEC33FCD5F0ED2252
:0E045E00E5F0247EA2D513CC92E7CDCEFF228E
:10046C003F8000004120000042C80000447A000098
:10047C00461C400047C35000497424004B1896801A
:10048C004CBEBC205A0E1BCA6753C21C749DC5AE11
:10049C00FB60065407601C23231204CAEB5438601B
:1004AC00091204B61204C5120003ECF8EDF9EEFAC9
:1004BC00EFCB22EB1204C580F1543803241C9004BA
:1004CC006CFE93FC0EEE93FD0EEE930ECE93FF227C
:03000000020FA349
:0C0FA300787FE4F6D8FD75814D020E92B7
:1004DC00BB010689828A83E0225002E722BBFE021E
:0904EC00E32289828A83E4932251
:1004F500BB010CE58229F582E5833AF583E02250BC
:1005050006E92582F8E622BBFE06E92582F8E22205
:0D051500E58229F582E5833AF583E493221F
:10052200BB010689828A83F0225002F722BBFE01B8
:02053200F322B2
:10053400BB010A89828A83F0E5F0A3F0225006F712
:0F05440009A7F01922BBFE06F3E5F009F319220F
:0E055300C3E49FFFE49EFEE49DFDE49CFC22B9
:10056100BB010789828A830205D65005E9F8020595
:0A057100CABBFE05E9F80205E2220C
:09057B00E6FB08E6FA08E6F922A5
:10058400FAE6FB0808E6F925F0F618E6CA3AF62278
:10059400FAE6FB0808E625F0F9F618E63AFAF62238
:1005A400D083D082F8E4937012740193700DA3A3E6
:1005B40093F8740193F5828883E4737402936860FA
:0605C400EFA3A3A380DFFA
:100F5800EFB40A07740D120F63740A309811A89938
:100F6800B8130CC2983098FDA899C298B811F630F9
:070F780099FDC299F59922D1
:100F9200100B0B120FAFBF0D027F0A020F58AF08E2
:010FA200222C
:050FB9008F08D20B229D
:100F7F00EFC394094005EF940E4003BF2003D380C5
:030F8F0001C32279
:0C05CA00ECF608EDF608EEF608EFF6225D
:0C05D600ECF0A3EDF0A3EEF0A3EFF02298
:0C05E200ECF208EDF208EEF208EFF22255
:0A0FAF003098FDAF99C2987E002231
:00000001FF
