:0C01CE000A0800002E00000000DF430AB9
:0B01DB00EF1FAC0670011E4C70F622F6
:10016500E4FDFCC3ED9FEC9E5015E4FBFA0BBB00D0
:0F017500010AEB64644A70F50DBD00010C80E4D3
:010184002258
:0301E6002430FFC3
:0801E9008F993099FDC29922A3
:10014100E4D2B77F08FE1201DBC2B77F507E0012F6
:1001510001DBD2B77F0E7E001201DBA2B77F147ED6
:04016100000201DBBC
:10018500E4FB7D08C2B7EBC313FBD2B730B703431B
:0D01950003807F047E001201DBDDE9AF0373
:0101A200223A
:0201A300AD07A6
:1001A5007B08C2B7ED1392B77F057E001201DBD243
:0701B500B7EDC313FDDBEB06
:0101BC002220
:10008F00E4FAFFFEFD1201417FCC1201A37F44125F
:10009F0001A31201417FCC1201A37FBE1201A37FE6
:1000AF00887E131201DB120185AA07120185EAC4AB
:1000BF00540FFEEFC454F02EFE75F00A84F508EECF
:1000CF0075F00A8485F009EA540FFE7D03EE75F092
:1000DF000AA4FEC4540FFF74082DF8A60753060F89
:0400EF000DBD07E953
:0100F30022EA
:1001BD00758920759850758DFD758BFDD28EC29900
:0101CD00220F
:1000F4001201BD12008FE5081201E6E5091201E6BE
:10010400AF0A1201E9E50B2430FF1201E9E50C24E2
:1001140030FF1201E9E50D2430FF1201E9E50E2458
:1001240030FF1201E9AF0F1201E9AF101201E9AF7C
:0D013400111201E97FD07E0712016580B62F
:03000000020003F8
:0C000300787FE4F6D8FD75811102004AF8
:10000F000200F4E493A3F8E493A34003F68001F213
:10001F0008DFF48029E493A3F85407240CC8C333F2
:10002F00C4540F4420C8834004F456800146F6DFC1
:10003F00E4800B01020408102040809001CEE47E82
:10004F00019360BCA3FF543F30E509541FFEE493B6
:10005F00A360010ECF54C025E060A840B8E493A37D
:10006F00FAE493A3F8E493A3C8C582C8CAC583CAA8
:10007F00F0A3C8C582C8CAC583CADFE9DEE780BE60
:0101DA000024
:00000001FF
