:020000000130CD
:100030009000B77530007531007532007533007C63
:100040000512004BDCFB120080013F7FC8E53093B6
:10005000F580C2A31200A9D2A3E53193F580C2A214
:100060001200A9D2A2E53293F580C2A11200A9D252
:10007000A1E53393F580C2A01200A9D2A0DFCE2261
:100080000530E530B40A217530000531E531B40A98
:10009000177531000532E532B40A0D7532000533AB
:1000A000E533B40A03753300227D32DDFE227E641F
:1000B0007D32DDFEDEFA22C0F9A4B0999282F8808A
:0100C00090AF
:00000001FF
