:100113006D637573747564696F2E636F6D2E636E93
:100123000054454C3A31353938303835343536306A
:02013300310099
:0D00EF00D2A5F5807F061200FCC2A57F0699
:1000FC00EFD3940040107D647C00ED1D70011CED6D
:06010C004C70F71F80EAB1
:0101120022CA
:10000300EF5402FEC43354E0FEEF5401FDC4333316
:100013003354804EFEEF5404FD33333354F84EFE15
:10002300EF5408FD25E04EFEEF5410FDC3134EFEC2
:10003300EF5420FD131313541F4EFEEF5440FDC421
:100043001354074EFEEF5480FDC413131354014E93
:06005300FFD2A30200EF42
:10005900EF5402FEC43354E0FEEF5401FDC43333C0
:100069003354804EFEEF5404FD33333354F84EFEBF
:10007900EF5408FD25E04EFEEF5410FDC3134EFE6C
:10008900EF5420FD131313541F4EFEEF5440FDC4CB
:100099001354074EFEEF5480FDC413131354014E3D
:0600A900FFC2A30200EFFC
:100135007F381200597F0C1200597F061200597F33
:04014500010200595A
:1000AF00C2A47FC81200FCC2A51201357F801200C6
:1000BF0059E4FBEB90011393FF1200037F641200CE
:1000CF00FC0BBB10EE7FC0120059E4FBEB90012438
:1000DF0093FF1200037F641200FC0BBB10EE80FE37
:03000000020149B1
:0C014900787FE4F6D8FD7581070200AF56
:00000001FF
