:1002FC00D282C281751C027F057E007D007C0012BB
:04030C0001FA80FE74
:0402D100AB07AA06C7
:1002D500D281C282E4FDD281EA5480C4131313543F
:1002E5000124FF9280C281EB25E0FBEA33FA0DBDC4
:0602F50010E4D282C28178
:0102FB0022E0
:0801FA008F1B8E1A8D198C1861
:100202007F007E1B7DB77C00AB1BAA1AA919A81818
:10021200D31201D6400C751B00751A1B7519B775E0
:100222001800E51C1460071460122402801C750873
:100232002175090A75162075170A801A7508217525
:100242000928751620751728800C7508217509086C
:10025200751620751708AF1BAE1AAD19AC18E4124B
:1002620001097B147AAE792B7841120003120147FF
:100272008F208E1F8D1E8C1DE51F543FFEE48E0ABB
:100282008F0B850A0E850B0FFFE51F54C0FEE51D7F
:10029200540FFC780E1201E78E0C8F0D850C108521
:1002A2000D11430A40430C40430E804310807512E7
:1002B200C07513007514E0751500E4FCEC25E0240C
:0E02C20008F8E6FE08E6FF1202D10CBC08EEBA
:0102D000220B
:10000300EC4D6011E8497017ED33EC3304600DE4F7
:10001300FCFFFEFD22E933E8330470F80201B3125A
:10002300017E58046009E4CC24815006285009025B
:1000330001BD2840030201BAC0E0EB4A7044B98015
:1000430006D0E0FB0201A9EF4E701CBD8008EBFF58
:10005300EAFEE9FD80EBE98DF0A4FEE5F00200EC99
:10006300E9CDF9EAFEEBFFEF89F0A4FCE5F0CE89D8
:10007300F0A42EFFE435F0CD89F0A42DFEE435F095
:100083008067EF4E7005BD80D780C3EF8BF0A4ACC3
:10009300F0EE8BF0A42CFCE435F0F8EF8AF0A42CFE
:1000A300E5F038FCE433CB8DF0A42CFCE5F03BF811
:1000B300EE8AF0A42CFCE5F038F8E433CF89F0A401
:1000C3002CFCE5F038CF3400CE89F0A42FFFE5F007
:1000D3003EFEE433C98DF0A42EFEE5F039CD8AF05F
:1000E300A42FFFE5F03EFEE43DFD33D0E0FB5007D7
:1000F3000BBB000F0201BDEC2CFCEF33FFEE33FE14
:06010300ED33FD02019541
:1001090075F020800E75F010800575F0087D007E71
:10011900007F003392D530D5031201C8EC3340106B
:10012900EF33FFEE33FEED33FDEC33FCD5F0ED227A
:0E013900E5F0247EA2D513CC92E7CDCEFF22B6
:10014700EDD2E7CD33EC3392D524814006E4FFFEB0
:10015700FDFC22FCE4CFCECDCC24E0501174FF800F
:10016700EDC3CC13CCCD13CDCE13CECF13CF0470AC
:07017700F030D5DE0201C8E3
:10017E00E9D2E7C933E833F892D5EDD2E7CD33ECC7
:07018E0033FC5002B2D52240
:10019500EC30E7100FBF000C0EBE00080DBD0004CB
:1001A5000BEB6014A2D5EB13FCED92E7FD2274FF77
:1001B500FCFDFEFF22E480F8A2D574FF13FC7D80D0
:0301C500E480EFE4
:03000000020310E8
:0C031000787FE4F6D8FD7581200202FC25
:0E01C800C3E49FFFE49EFEE49DFDE49CFC2248
:1001D600EB9FF5F0EA9E42F0E99D42F0E89C45F07F
:0101E60022F6
:1001E700E8600FECC313FCED13FDEE13FEEF13FFF6
:0301F700D8F1221A
:00000001FF
