:080105007EBDDBE7DBBD7EFFE0
:10000300D2A2D2A17FFF12007EE4F508E508900199
:100013000593FDAF081200620508E508C394084084
:10002300EBE4F508AF081200A98F80050853080711
:070033007FFA1200BC80ED12
:0F00CE00D2A2D2A10000C2A200000000C2A12253
:0D00EC00C2A20000D2A100000000D2A2229A
:10009400E4FED2A1EF25E0FFA2A2E4334207C2A10D
:0400A4000EBE08EE96
:0100A8002235
:10003A00E4FEEF3392A200D2A10000C2A1EF25E0B4
:10004A00FF0EBE08EDD2A20000D2A100000000A25D
:07005A00A29200C2A1A20066
:01006100227C
:10006200AC071200CE7FA012003AAF0412003AAFE2
:0C0072000512003A1200EC7F0A0200BCEC
:02007E008F09E8
:10008000E4F50AAD09AF0A120062050AE50AC39455
:030090007F40F0BE
:01009300224A
:0E00DD001200CE7FA112003A1200941200EC25
:0100EB0022F2
:1000A900AD071200CE7FA012003AAF0512003A1236
:0300B90000DD2245
:1000BC00AD071FED600BE4FEEEC3947850F20E809A
:0100CC00F73C
:0100CD002210
:030000000200F902
:0C00F900787FE4F6D8FD7581200200033A
:00000001FF
