:030000000200CA31
:0C00CA00787FE4F6D8FD75812A02011150
:10049F005945413A4D4F4E3A4441543A54494D45CE
:0104AF00004C
:10047400011B0B011A05011916011D17011E3B0171
:050484001C3701180007
:1004020012045B1203597A047B9F7D01E4FF1203FD
:10041200A1758901758C4CE4F58AD28CD2A9D2AF30
:0204220080FE5A
:10000E00051CE51CD3943B50030200C9E4F51C0506
:10001E001EE51ED3943B50030200C9E4F51E051DD8
:10002E00E51DD3941750030200C9E4F51D0519E52B
:10003E001A64016023E51A6403601DE51A64056005
:10004E0017E51A64076011E51A6408600BE51A6477
:10005E000A6005E51AB40C0CE519D3941F4005751A
:10006E001901051AE51A64046011E51A6406600B9D
:10007E00E51A64096005E51AB40B0CE519D3941E54
:10008E004005751901051AE51AB402191203DA5062
:10009E0008E519941D400E8007E519D3941C400500
:1000AE00751901051AE51AD3940C4005751A010548
:0C00BE001BE51BD394634003E4F51B22F8
:1003DA00E51B5403700AE51B75F06484E5F0700FA1
:1003EA00AF1B7E007C017D90120304ED4C7004D299
:0703FA00008002C200A20016
:0104010022D8
:03000B000202A44A
:1002A400C0E0C0F0C083C082C0D075D000C000C020
:1002B40001C002C003C004C005C006C007758C4C51
:1002C400758A000518E518C39414401975180012AE
:1002D400015612000E120440E51C30E0057515208D
:1002E400800375153AD007D006D005D004D003D0CA
:1002F40002D001D000D0D0D082D083D0F0D0E03270
:10015600750832750930E51B75F00A842430F50AF6
:10016600E51B75F00A84E5F02430F50B750C20E5E7
:100176001A75F00A842430F50DE51A75F00A84E53F
:10018600F02430F50E750F2EE51975F00A8424302B
:10019600F510E51975F00A84E5F02430F5117512AD
:1001A60020E51D75F00A842430F513E51D75F00A67
:1001B60084E5F02430F514E51E75F00A842430F544
:0E01C60016E51E75F00A84E5F02430F51722C8
:10044000E4F52874082528F8E6FBE4FDAF2812043B
:0A045000240528E528D3940F40E9A5
:01045A00227F
:100240008F2A12048AE52A5402C43354E0FFE52AB7
:100250005401C433333354804FFFE52A54043333FD
:100260003354F84FFFE52A540825E04FFFE52A54A0
:1002700010C3134FFFE52A5420131313541F4FFFCD
:10028000E52A5440C41354074FFFE52A5480C41391
:10029000131354014FF52AF580D2A3C2A4C2A5C2FC
:0402A000A5D2A5221C
:0401D4007D017C002D
:1001D8008F2AED4C600312048AE52A5402C4335472
:1001E800E0FFE52A5401C433333354804FFFE52A36
:1001F800540433333354F84FFFE52A540825E04FAD
:10020800FFE52A5410C3134FFFE52A542013131394
:10021800541F4FFFE52A5440C41354074FFFE52AE3
:100228005480C413131354014FF52AF580C2A3C296
:08023800A4C2A5C2A5D2A522B3
:0D04BF00D2A3D2A4C2A5C2A5D2A5AF8022AF
:10048A007580FFC2A3D2A4C2A5C2A5D2A5E58020C9
:05049A00E0FBAF802231
:10035900E4F580FDFC7F381201D81204B0E4FDFCFD
:100369007F381201D81204B0E4FDFC7F381201D89D
:100379001204B07F381201D47F081201D47D017CA8
:10038900007F011201D87D017C007F061201D87D12
:08039900017C007F0C0201D879
:100424008B2953050153070FED600343074043072E
:0C04340080E4FDFC1201D8AF2902024058
:0803A1008F218D228A238B2499
:1003A900E4F52553220153210FE5242525F582E49F
:1003B9003523F583E493FBD394204014E521D394AA
:1003C9000F50E6AD22AF211204240525052180D95D
:0103D9002201
:0E04B0007FB07E15EF1FAC0670011E4C70F67B
:0104BE00221B
:10045B007D05AC051DEC60107E1C7F65EF1FAA06A9
:08046B0070011E4A60EC80F4F0
:010473002266
:1000D600020402E493A3F8E493A34003F68001F23A
:1000E60008DFF48029E493A3F85407240CC8C3332B
:1000F600C4540F4420C8834004F456800146F6DFFA
:10010600E4800B0102040810204080900474E47E11
:10011600019360BCA3FF543F30E509541FFEE493EE
:10012600A360010ECF54C025E060A840B8E493A3B5
:10013600FAE493A3F8E493A3C8C582C8CAC583CAE0
:10014600F0A3C8C582C8CAC583CADFE9DEE780BE98
:010489000072
:10030400BC000BBE0029EF8DF084FFADF022E4CCDD
:10031400F875F008EF2FFFEE33FEEC33FCEE9DECA6
:10032400984005FCEE9DFE0FD5F0E9E4CEFD22EDEC
:10033400F8F5F0EE8420D21CFEADF075F008EF2F36
:10034400FFED33FD4007985006D5F0F222C398FD27
:050354000FD5F0EA22C4
:00000001FF
