:03000000020100FA
:1001000012022312011212019C1201B012021702F4
:1001100001001201372050012274CC120162744494
:1001200012016212021712013774CC12016274BEFE
:1001300012016212017A22D2B700C2B7780279FAAC
:10014000D9FED8FAD2B700780F30B705D8FB020134
:1001500056D25002015BC25002015F7878D8FED2BD
:10016000B7227A08C2B77B06DBFE1392B77B14DB9B
:10017000FED2B70000DAEDD2B7227C0279297A08E4
:10018000D2B70000C2B70000D2B77B05DBFEA2B732
:100190007B14DBFE13DAE9F719DCE322740F55292F
:1001A000F527E529C4F529E528C47829D6F52622BE
:1001B000E52675F00A84F52085F021E52778227A76
:1001C0000475F00AA475F01084F608E5F0DAF2740C
:1001D00030422042214222422342244225E520127D
:1001E0000231E521120231742E120231E52212028F
:1001F00031E523120231E524120231E525120231E4
:1002000074DF1202317443120231740A1202312275
:100210007FFA0000DFFC227E047DFA120210DDFB73
:10022000DEF722759850758920758DFDD28ED29992
:09023000223099FDC299F59922D2
:00000001FF
