:03000000020030CB
:100030007530007531007532007533007B007C002F
:10004000C20020000312008E30A61530A702014224
:100050001200CB20A7EC1200CB30A7FAB20001426D
:1000600012008E20A6DC12008E30A6FA0BBB3C08D4
:100070007B000CBC3C027C00EB75F00A84F53285F9
:10008000F033EC75F00A84F53085F03101429000D0
:10009000D4E53393F580C2A31200C2D2A3E5329314
:1000A000F580C2A21200C2D2A2E53193F580C2A1AE
:1000B0001200C2D2A1E53093F580C2A01200C2D2D4
:1000C000A02278147928D9FED8FA227D647E30DE09
:0E00D000FEDDFA22C0F9A4B0999282F8809069
:00000001FF
